:100000000C9404020C9497150C9470150C940D1517
:100010000C94AA140C9439140C942C020C942C02F9
:100020000C942C020C942C020C9418100C942C029E
:100030000C942C020C945A0A0C942C020C942C0252
:100040000C9495020C942C020C9405030C94DF0282
:100050000C942C020C942C020C942C020C942C0268
:100060000C942C020C942C024552524F523A2055BB
:100070006E61626C6520746F20696E697469616C71
:1000800069736520534420636172642E002F4658C3
:100090002F50494E47004D6F74696F6E2068617331
:1000A000206265656E2064657465637465642061B3
:1000B00074206D696C6C6973203D20002F4155548C
:1000C0004F53457E312F002F5345415243482F0057
:1000D0002F4143544956452F002F5245544952450C
:1000E0002F002F00E200D900D000C700BC002F4431
:1000F00045504C4F592F00547572726574207374BB
:100100006174652074696D656F75742072656163D3
:10011000686564002F46582F4445504C4F59002FB6
:1001200046582F414354495645002F46582F5245B3
:100130005452414354005475727265742073746153
:10014000746520646964206368616E676520746FFC
:100150002000547572726574207374617465207721
:10016000696C6C206368616E676520746F20005253
:10017000616E646F6D697365642077697468207659
:10018000616C75653A2000496E697469616C6973C8
:10019000696E672072616E646F6D697365722E2E71
:1001A0002E002F46582F57484F41004F70657261FF
:1001B00074696F6E206D6F64652064696420636884
:1001C000616E676520746F20004F7065726174699D
:1001D0006F6E206D6F64652077696C6C2063686159
:1001E0006E676520746F20005374617465206368C6
:1001F000616E67652074696D657220776173207226
:10020000657365740046696E697368656420706C17
:1002100061796261636B206F6620736F756E643AFB
:100220002000426567696E6E696E6720706C617947
:100230006261636B206F6620736F756E643A200095
:1002400043686F73652072616E646F6D2066696CC0
:10025000653A200020617420706174683A2000457E
:1002600052524F523A20436F756C646E2774206F60
:1002700070656E207468652063686F73656E2066B4
:10028000696C65207768696C65207365656B696E5C
:100290006720230020617420706174683A20004553
:1002A00052524F523A2052616E206F7574206F6621
:1002B0002066696C6573207768696C652073656575
:1002C0006B696E6720230052616E646F6D206669F2
:1002D0006C6520696E6465782063686F696365206A
:1002E00069733A2000466F756E642076616C6964AC
:1002F0002066696C6573206E756D626572696E67E4
:100300003A20004552524F523A204E6F2066696C97
:10031000657320617420706174683A200045525200
:100320004F523A20556E61626C6520746F206F7079
:10033000656E2070617468200047657474696E672B
:100340002072616E646F6D2066696C656E616D65AB
:100350002061742070617468200057696C6C207093
:100360006C61792072616E646F6D20736F756E645D
:1003700020776974682066756C6C20706174683AC7
:1003800020007C3C3E5E2B3D3F2F5B5D3B2C2A22B8
:100390005C00616E616C6F67577269746520746F81
:1003A0002070696E200053657420636F6C6F7572E6
:1003B00020746F3A200000000000240027002A006B
:1003C00000000000250028002B000404040404049D
:1003D00004040202020202020303030303030102F4
:1003E00004081020408001020408102001020408C3
:1003F00010200000000800020100000304070000B4
:10040000000000000000282111241FBECFEFD8E01B
:10041000DEBFCDBF12E0A0E0B1E0E4EFFAE402C03D
:1004200005900D92A834B107D9F726E0A8E4B2E010
:1004300001C01D92AF33B207E1F712E0C4E0D2E091
:1004400004C02197FE010E941324C330D107C9F7CD
:100450000E94BD1D0C9478250C940000CF92DF9271
:10046000EF92FF920F931F93CF93DF936C017A016A
:100470008B01C0E0D0E0CE15DF0581F0D8016D9191
:100480008D01D601ED91FC910190F081E02DC60126
:100490000995892B11F02196EECF7E01C701DF91DE
:1004A000CF911F910F91FF90EF90DF90CF90089523
:1004B0008AE295E00E94B30921E0892B09F420E04B
:1004C000822F08950E943A253FB7F89480918C02BC
:1004D00090918D02A0918E02B0918F0226B5A89BBB
:1004E00005C02F3F19F00196A11DB11D3FBFBA2FC6
:1004F000A92F982F8827820F911DA11DB11DBC0126
:10050000CD0142E0660F771F881F991F4A95D1F7EA
:1005100008952FB7F89460918802709189028091B4
:100520008A0290918B022FBF08951F920F920FB6EF
:100530000F9211242F933F938F939F93AF93BF9369
:100540008091880290918902A0918A02B0918B02D9
:100550003091870223E0230F2D3720F40196A11D4F
:10056000B11D05C026E8230F0296A11DB11D2093E1
:1005700087028093880290938902A0938A02B093A5
:100580008B0280918C0290918D02A0918E02B0918D
:100590008F020196A11DB11D80938C0290938D0254
:1005A000A0938E02B0938F02BF91AF919F918F91D4
:1005B0003F912F910F900FBE0F901F9018951F9293
:1005C0000F920FB60F9211242F933F934F935F9387
:1005D0006F937F938F939F93AF93BF93EF93FF930B
:1005E0008AE295E00E94C909FF91EF91BF91AF9116
:1005F0009F918F917F916F915F914F913F912F913B
:100600000F900FBE0F901F9018951F920F920FB66C
:100610000F9211242F938F939F93EF93FF93E09169
:100620003A05F0913B058081E0914005F09141054C
:1006300082FD12C09081809143058F5F8F7320915E
:100640004405821751F0E0914305F0E0E65DFA4F72
:10065000958F8093430501C08081FF91EF919F9119
:100660008F912F910F900FBE0F901F901895DC0166
:100670005996ED91FC915A973097B9F083899489F6
:10068000A589B6894285538564857585841B950B3C
:10069000A60BB70B811520E89207A105B10538F02C
:1006A0008FEF9FE7A0E0B0E0089580E090E008952C
:1006B000CF93DF931F92CDB7DEB76983DC01ED9155
:1006C000FC910280F381E02D41E050E0BE016F5FBC
:1006D0007F4F09950F90DF91CF910895089580E0A5
:1006E00090E008950E9489026093820270938302D1
:1006F00080938402909385020895FC01818D928DF0
:10070000009711F00C94750C0895CF93DF93EC01D2
:10071000898D9A8D009739F481E090E09B838A83DC
:1007200080E090E00BC0FC01138212820E94610DF8
:10073000E98DFA8D22813381232B71F7DF91CF91DF
:1007400008950F931F93CF93DF93CDB7DEB76097D4
:100750000FB6F894DEBF0FBECDBF8B0180917E0235
:1007600090917F028230910549F420912305222344
:1007700029F0109223050E94A31606C0023011052D
:1007800059F00130110579F00330110539F580E099
:1007900090E0A0E0BFE326C0019701F5809123051A
:1007A00081111CC009C0809123058823B9F01092E3
:1007B00023050E94A31612C06EEE70E0CE010196D2
:1007C0000E941622CE0101960E9488128091230574
:1007D000811104C081E080932305EBCF80E090E09D
:1007E000A0E8BFE380931F0590932005A093210507
:1007F000B09322050E94A31660960FB6F894DEBF50
:100800000FBECDBFDF91CF911F910F910895CF9370
:10081000DF93CDB7DEB760970FB6F894DEBF0FBE9B
:10082000CDBF880F991FFC01EC51FF4F659174916A
:10083000CE0101960E941622CE0101960E948812D6
:1008400060960FB6F894DEBF0FBECDBFDF91CF919B
:1008500008953F924F925F926F927F928F929F92F4
:10086000AF92BF92CF92DF92EF92FF920F931F93BE
:10087000CF93DF93CDB7DEB72C970FB6F894DEBFDA
:100880000FBECDBF5C01DC015B968D909C905C97A8
:100890001696CD90DD90ED90FC901997C114D1047F
:1008A000E104F10439F0BFEFCB1ADB0AEB0AFB0AD3
:1008B000312C07C0F401C080D180E280F380332462
:1008C0003394F40181859285A385B4859C01AD01A3
:1008D0002F5F3F4F4F4F5F4F29873A874B875C878A
:1008E000260137011D821E821F821886F401818530
:1008F0009285A385B4852D813E814F815885281727
:1009000039074A075B0708F063C089859A85AB857C
:10091000BC858C159D05AE05BF0550F482E0C82E40
:10092000D12CE12CF12C92E0492E512C612C712C10
:100930009E012F5F3F4FB701A601C4010E94F20B39
:10094000882309F445C089819A81AB81BC81892BB8
:100950008A2B8B2B41F0260137019FEF491A590A48
:10096000690A790A05C0C414D504E604F70491F0B5
:100970002D813E814F8158852F5F3F4F4F4F5F4FF5
:100980002D833E834F8358873FEFC31AD30AE30A70
:10099000F30AACCF0FEF1FEF2FEF3FE0B301A2013F
:1009A000C4010E94510B882399F0D50116964D91F0
:1009B0005D916D917C911997411551056105710506
:1009C00049F093018201C4010E94510B811102C0C0
:1009D00080E02AC0D50116964D925D926D927C9270
:1009E0001997332051F0D301C2010196A11DB11D09
:1009F000F40180839183A283B383F5018789908D6D
:100A0000A18DB28D892B8A2B8B2B69F4D50157963A
:100A10004D925D926D927C925A9714968C91149798
:100A2000806814968C9381E02C960FB6F894DEBF04
:100A30000FBECDBFDF91CF911F910F91FF90EF902F
:100A4000DF90CF90BF90AF909F908F907F906F90EE
:100A50005F904F903F9008958FB7F89480919102E6
:100A60008FBF089561E0FC0184810E94071B809183
:100A7000900281111092900208958EBD00000DB475
:100A800007FEFDCF8EB508958FEF0C943D050F93B3
:100A90001F93CF93DF93EB010E9489028B010E9489
:100AA00044058F3F49F00E948902601B710B6C174F
:100AB0007D07A8F380E001C081E0DF91CF911F9115
:100AC0000F910895CF93DF93EC018E81882389F0F5
:100AD0008F8198859C012F5F3F4F38872F8382300D
:100AE000924018F40E944405F3CFCE010E943205D3
:100AF0001E82DF91CF9108958CBD9DBD0895CF9347
:100B0000DF93EC0180919002811109C081E0809314
:100B100090028091E2059091E3050E947C0560E0DF
:100B20008C81DF91CF910C94071B8F929F92AF9293
:100B3000BF92FF920F931F93CF93DF93EC01F62E9A
:100B400049015A010E946205CE010E947F056CE2B4
:100B500071E0CE010E9447058F2D80640E943D0503
:100B600008E110E0D501C401002E04C0B695A79598
:100B7000979587950A94D2F70E943D050850110970
:100B8000083F8FEF180771F7FF2029F088E0F8126F
:100B900004C087E803C085E901C08FEF0E943D05CE
:100BA00010E00E9444058A8787FF04C01F3F11F0B0
:100BB0001F5FF7CFDF91CF911F910F91FF90BF90F3
:100BC000AF909F908F900895AF92BF92CF92DF9297
:100BD000EF92FF920F931F93CF93DF93EC01690184
:100BE000C801820F931F8130924008F070C08E813F
:100BF000882371F088819981AA81BB818417950728
:100C0000A607B70729F48F819885C816D906B0F5CD
:100C1000488359836A837B838B85833039F089E0ED
:100C2000440F551F661F771F8A95D1F79A01AB01B4
:100C300061E1CE010E949505882319F083E08D8340
:100C400046C00E9489025B010E9444058A878F3F4B
:100C500049F40E9489026A197B096D327140A0F340
:100C60008FE003C08E3F31F08DE08D83CE010E9476
:100C700032052DC018861F8281E08E838F81988572
:100C80008C159D0540F40E9444058F81988501963E
:100C900098878F83F3CF6701E00EF11EEC14FD04FB
:100CA00031F00E944405F60181936F01F7CF8F81E7
:100CB0009885080F191F18870F838985882319F0D5
:100CC0000115124048F0CE010E94620505C0CE0118
:100CD0000E94320580E001C081E0DF91CF911F9139
:100CE0000F91FF90EF90DF90CF90BF90AF9008955D
:100CF000EF92FF920F931F93CF93DF93EC01790153
:100D0000411551056105710511F482E13CC08B85E7
:100D1000833039F089E0440F551F661F771F8A958D
:100D2000D1F79A01AB0168E1CE010E9495058823B5
:100D300011F084E028C08EEF0E943D0587018EEF00
:100D4000F81AF80181918F010E943D05E016F10625
:100D5000C1F78FEF0E943D058FEF0E943D050E9475
:100D600044058A878F71853031F081E18D83CE0112
:100D70000E94320509C068E572E0CE010E94470575
:100D8000811107C085E18D83CE010E94320580E08C
:100D900014C020E030E0A9016DE0CE010E9495056D
:100DA000811109C00E944405811105C0CE010E9435
:100DB000320581E002C084E1E6CFDF91CF911F913F
:100DC0000F91FF90EF900895FC01DB0112968D9139
:100DD0009C9113979383828387E991E09183808329
:100DE00014968C911497848315968C91159785830E
:100DF00016964D915D916D917C911997468357831D
:100E0000608771871A964D915D916D917C911D97C8
:100E100042875387648775871E964D915D916D91CA
:100E20007C91519746875787608B718B52968C9136
:100E30005297828B53964D915D916D917C9156970F
:100E4000438B548B658B768B57964D915D916D914D
:100E50007C915A97478B508F618F728F5B968D91E3
:100E60009C915C97948F838F0895FC01138212826A
:100E700088EE93E0A0E0B0E084839583A683B783F7
:100E800081E691E091838083128E118E14860895FD
:100E9000CF93DF931F92CDB7DEB741E050E0BE01A4
:100EA0006F5F7F4F0E94130F019719F4898190E0C3
:100EB00002C08FEF9FEF0F90DF91CF910895FC015B
:100EC000818D928D009711F00C9448078FEF9FEF62
:100ED00008950F931F93CF93DF93FC01818D928D23
:100EE0000097B9F0EF010E9448078C010F3F8FEF88
:100EF000180791F0898D9A8DFC0142855385648590
:100F0000758541505109610971090E94CA0CC801D7
:100F100005C080E090E002C08FEF9FEFDF91CF919E
:100F20001F910F9108954F925F926F927F928F92CF
:100F30009F92AF92BF92CF92DF92EF92FF920F9368
:100F40001F93CF93DF9300917E0210917F020817C9
:100F5000190709F4DDC0EC0185E692E00E94321623
:100F60008EEA91E00E943C1689EC91E00E943E16C8
:100F70008FEA91E00E943C16CE010E9432168FEA61
:100F800091E00E943C16C8010E9432168DEA91E061
:100F90000E94591681E591E00E9432168EEA91E096
:100FA0000E943C1687E891E00E943E168DEA91E08F
:100FB0000E9459168FE00E94EF1B5C018EE00E9498
:100FC000EF1BE0900001F09001012FEFE216F20616
:100FD00009F47C010E948902EA0CFB1C9B01AC0114
:100FE0002E0D3F1D411D511D69017A01211531054D
:100FF0004105510549F1CA01B9010E940D22C701FD
:10100000B6012AE030E040E050E00E9458224B0157
:10101000A12CB12C84E6482E512C612C712CA814E3
:10102000B90491F00E94BF21A30192010E942622DF
:1010300097FF03C00E94111603C04AE00E94D0151A
:101040003FEFA31AB30AEBCF8DEA91E00E94591645
:1010500088E591E00E9432168EEA91E00E943C16EB
:101060008FE691E00E943E168FEA91E00E943C16C6
:101070004AE0C701B6010E94D0158DEA91E00E94B6
:101080005916CE010197029750F480917E029091FB
:101090007F02892B21F082EA91E00E94F813D0931D
:1010A0007F02C0937E028091800290918102BC01F8
:1010B0000E94A10389E692E00E9432168EEA91E036
:1010C0000E943C168BEA91E00E943E168FEA91E066
:1010D0000E943C16CE010E9432168FEA91E00E94D7
:1010E0003C16C8010E9432168DEA91E0DF91CF9143
:1010F0001F910F91FF90EF90DF90CF90BF90AF9036
:101100009F908F907F906F905F904F900C945916A6
:10111000DF91CF911F910F91FF90EF90DF90CF90D3
:10112000BF90AF909F908F907F906F905F904F9007
:101130000895EF92FF920F931F93CF93DF93009147
:101140008002109181020817190709F492C0EC017E
:101150008BE592E00E9432168EEA91E00E943C16E6
:1011600082E591E00E943E168FEA91E00E943C16D3
:10117000CE010E9432168FEA91E00E943C16C8010F
:101180000E9432168DEA91E00E945916CE01029714
:101190008330910578F4FC01EE0FFF1F8E0F9F1F27
:1011A000FC01EA5CFE4F80819181A281BC018A2F03
:1011B00090E004C06FEF7FEF8FEF90E00E94671622
:1011C000E0908002F0908102C230D10521F48FE1DD
:1011D00091E00E94F81382E0E816F10420F484E123
:1011E00091E00E94F813D0938102C09380020E9484
:1011F0001F1480918002909181028130910561F4E9
:101200000430110521F081E090E00E9407048AE299
:1012100091E00E94F81302C00E94070460918002CE
:1012200070918102C8010E94A1038FE592E00E94A3
:1012300032168EEA91E00E943C1686E391E00E940D
:101240003E168FEA91E00E943C16CE010E943216B3
:101250008FEA91E00E943C16C8010E9432168DEA86
:1012600091E0DF91CF911F910F91FF90EF900C943F
:101270005916DF91CF911F910F91FF90EF90089534
:101280000F931F93CF930E94890200910201109146
:1012900003012091040130910501DC01CB01801B89
:1012A000910BA20BB30BE0918002F0918102EE0F43
:1012B000FF1FEE0FFF1FEE5DFE4F008111812281A7
:1012C0003381C1E0081719072A073B0708F0C0E07F
:1012D000081719072A073B0780F483E592E00E946C
:1012E00032168EEA91E00E943C1687EF90E00E9451
:1012F0003E168DEA91E00E9459168C2FCF911F91D6
:101300000F910895FC01538D448D252F30E0842FDB
:1013100090E0821B930B541710F0CF96089501971D
:101320000895FC01918D828D981761F0828DDF0107
:10133000A80FB11D5D968C91928D9F5F9F73928FC8
:1013400090E008958FEF9FEF0895FC01918D828DBD
:10135000981731F0828DE80FF11D858D90E008958A
:101360008FEF9FEF0895FC01918D228D892F90E0E2
:10137000805C9F4F821B91098F739927089580E0AD
:1013800090E0892B29F00E94580281110C940000F2
:101390000895FC01848DDF01A80FB11DA35ABF4F32
:1013A0002C91848D90E001968F739927848FA68964
:1013B000B7892C93A089B1898C91837080648C93B8
:1013C000938D848D981306C00288F389E02D808167
:1013D0008F7D80830895EF92FF920F931F93CF9399
:1013E000DF93EC0181E0888F9B8D8C8D981305C075
:1013F000E889F989808185FD26C0F62E0B8D10E0E5
:101400000F5F1F4F0F731127E02E8C8DE8120CC059
:101410000FB607FCFACFE889F989808185FFF5CFFF
:10142000CE010E94C909F1CF8B8DFE01E80FF11D9D
:10143000E35AFF4FF0829FB7F8940B8FEA89FB893C
:10144000808180620AC09FB7F894EE89FF8960832B
:10145000E889F98980818370806480839FBF81E0FF
:1014600090E0DF91CF911F910F91FF90EF90089541
:10147000CF93DF93EC01888D8823C9F0EA89FB893B
:10148000808185FD05C0A889B9898C9186FD0FC032
:101490000FB607FCF5CF808185FFF2CFA889B98907
:1014A0008C9185FFEDCFCE010E94C909E7CFDF9176
:1014B000CF9108951F920F920FB60F9211242F9380
:1014C0003F938F939F93EF93FF938091100186FD3D
:1014D0001CC020917D0227FF23C0E091150380915D
:1014E000140390E4E99FF0011124EC56FD4FE80F3E
:1014F000F11D808190E0332721950CF4309502C0D6
:10150000959587952A95E2F71EC090911B0381E07F
:10151000892780931B0380911B038823D1F232C05B
:10152000E09115038091140390E4E99FF0011124E8
:10153000EC56FD4FE80FF11D808190E002C0880F4E
:10154000991F2A95E2F790932E0680932D0690938B
:10155000890080938800809114038F5F8093140327
:1015600080911403803470F010921403E0911503FD
:10157000F0E0E65FFE4F81E08083909115038927BC
:1015800080931503FF91EF919F918F913F912F9140
:101590000F900FBE0F901F90189580911C03882309
:1015A000A9F140910C0150910D0160910E017091D3
:1015B0000F012DE133E080912F06909130060E94BB
:1015C0007806811102C080E0089540911603509181
:1015D00017036091180370911903411551056105B6
:1015E000710591F02DE133E080912F069091300646
:1015F0000E947806882339F310921603109217037D
:10160000109218031092190310921C0381E00895A0
:101610008F929F92AF92BF92EF92FF920F931F9380
:10162000CF934B015C01C42F80910C0190910D016F
:10163000A0910E01B0910F0188159905AA05BB056F
:1016400001F10E94CD0A811102C080E020C08DE12D
:10165000E82E83E0F82E00E012E020E030E0B50153
:10166000A40180912F06909130060E94E405882302
:1016700061F380920C0190920D01A0920E01B09244
:101680000F0180911C03C82BC0931C0381E0CF91F4
:101690001F910F91FF90EF90BF90AF909F908F9010
:1016A00008954F925F926F927F928F929F92AF9226
:1016B000BF92CF92DF92EF92FF920F931F93CF933F
:1016C000DF93EC01423051056105710510F480E0B3
:1016D00078C089859A85AB85BC850196A11DB11D11
:1016E00084179507A607B70790F3CB88DC88ED88A9
:1016F000FE888F89803129F4BB27A72F962F852F4D
:1017000009C0DB01CA01E7E0B695A79597958795D3
:10171000EA95D1F7480159012A013B01C80ED91EAB
:10172000EA1EFB1E80910C0190910D01A0910E010B
:10173000B0910F01C816D906EA06FB0681F48F891D
:101740008031A9F4B301A201552766277727440FFA
:10175000551FFA01E35EFC4F9182808219C040E080
:10176000C701B6010E94080B8111E9CFB0CFB301C8
:10177000A2014F77552766277727440F551F440F3F
:10178000551FFA01E35EFC4F80829182A282B382F0
:1017900080911C03816080931C038A89823080F0D1
:1017A0008D819E81AF81B885C80ED91EEA1EFB1EB1
:1017B000C0921603D0921703E0921803F092190317
:1017C00081E0DF91CF911F910F91FF90EF90DF901B
:1017D000CF90BF90AF909F908F907F906F905F90D1
:1017E0004F9008958F929F92AF92BF92CF92DF92C7
:1017F000EF92FF920F931F93CF93DF93FC018185AC
:101800009285A385B4850196A11DB11D8417950706
:10181000A607B70710F480E05BC083889488A5888A
:10182000B6888789803129F4BB27A72F962F852F6B
:1018300009C0DB01CA01C7E0B695A79597958795C2
:10184000CA95D1F7E9016A017B018F01BC01CD0185
:10185000680D791D8A1D9B1D80900C0190900D01D3
:10186000A0900E01B0900F01681579058A059B05BF
:1018700091F4F80187898031A1F4DD24EE24FF245E
:10188000C601880F991FFC01E35EFC4F80819181A6
:10189000A0E0B0E018C040E00E94080B8111E9CF41
:1018A000BACFE894C7F8DD24EE24FF24C601880FE0
:1018B000991F880F991FFC01E35EFC4F8081918185
:1018C000A281B381BF7088839983AA83BB8381E09F
:1018D000DF91CF911F910F91FF90EF90DF90CF900C
:1018E000BF90AF909F908F9008950F931F93CF93C9
:1018F000DF93FC012581222309F446C0248127FFC0
:101900003DC08C01668577858089918941E00E9480
:10191000080B8823C9F1F801C289F0E2CF9FE001EA
:101920001124C35EDC4F209779F1F8018581823064
:1019300040F483899489A589B6898C8F9D8FAE8F59
:10194000BF8FF8018789908DA18DB28D9B8F8A8F73
:10195000BD8BAC8BE0915B01F0915C01309751F055
:10196000BE016A5E7F4FCE0148960995888D998D9C
:101970009B8B8A8BF80194819F779483DF91CF9121
:101980001F910F910C94CD0A80E0DF91CF911F91B0
:101990000F9108958F929F92AF92BF92CF92DF9254
:1019A000EF92FF920F931F93CF93DF93EC018D8102
:1019B000811102C080E078C00B891C892D893E8985
:1019C0000417150726073707A8F36A017B01823041
:1019D00029F4CA86DB86EC86FD860DC0C114D104CD
:1019E000E104F10451F41E821F82188619861A86BA
:1019F0001B861C861D8681E057C08A849B84AC842C
:101A0000BD84EB8DFC8D258530E0275F3F4FB50110
:101A1000A4014150510961097109022E04C0769553
:101A20006795579547950A94D2F7D701C601019754
:101A3000A109B10904C0B695A795979587952A95F0
:101A4000D2F784179507A607B70720F089288A28B8
:101A50008B2871F44F89588D698D7A8D4E835F8301
:101A6000688779874C015D018E010A5F1F4F16C0A0
:101A7000841B950BA60BB70BF5CF4E815F81688554
:101A8000798598018B8D9C8D0E94F20B91E0891ACB
:101A90009108A108B108882309F48CCF811491041E
:101AA000A104B10451F795CFDF91CF911F910F9110
:101AB000FF90EF90DF90CF90BF90AF909F908F906E
:101AC00008952F923F924F925F926F927F928F92E2
:101AD0009F92AF92BF92CF92DF92EF92FF920F93BD
:101AE0001F93CF93DF9300D000D0CDB7DEB78C012A
:101AF0006B011A01DC0115968C9115978130C9F4A0
:101B000014968C9181FF15C082FF1DC0F801438996
:101B100054896589768982859385A485B5858417DE
:101B20009507A607B70779F0C8010E94CA0C811172
:101B30000AC081E090E0D80113969C938E9312978F
:101B400080E090E048C1410183C05B968D919C91FB
:101B50005C97FC0174802FEF270D2A013B0139E0CF
:101B600076946794579447943A95D1F7722E7420DF
:101B70007A01F1E0FF22772009F476C080E092E05C
:101B80008E199F0954018815990508F45C01D80144
:101B90005B962D913C915C9716968D919D910D9041
:101BA000BC91A02D0297A109B109F901058404C0D7
:101BB000880F991FAA1FBB1F0A94D2F74685578525
:101BC00060897189840F951FA61FB71F9C01AD0105
:101BD000270D311D411D511D29013A01A11432E08B
:101BE000B30609F088C080910C0190910D01A0917D
:101BF0000E01B0910F01481659066A067B0659F48A
:101C00008FEF9FEFDC0180930C0190930D01A09367
:101C10000E01B0930F019601B301A20180912F062E
:101C2000909130060E947806882309F482CF9EEFB7
:101C3000D91A8A189B08F80182859385A485B585F1
:101C40008A0D9B1DA11DB11D82879387A487B5872F
:101C5000D8011A964D915D916D917C911D978114DB
:101C6000910409F072CF87C0E114F10409F086CF26
:101C700016964D915D916D917C9119974115510585
:101C80006105710559F457968D919D910D90BC9108
:101C9000A02D0097A105B10541F521C09E012F5F40
:101CA0003F4F0E94F20B882309F44BCF89819A8120
:101CB000AB81BC81F801238D348DF9012789203156
:101CC00029F048EF5FEF6FEF7FE004C048EF5FEF70
:101CD00060E070E084179507A607B70730F0C801E9
:101CE0000E94290481114ACF24CFF801868397836B
:101CF000A087B18743CFE114F10429F5D8011A96E2
:101D00004D915D916D917C911D9753968D919D9113
:101D10000D90BC91A02D481759076A077B0798F0D2
:101D20000E94CD0A882309F404CF40920C015092FE
:101D30000D0160920E0170920F0180911C03816071
:101D400080931C0308C041E0C301B2010E94080B4C
:101D5000882309F4EECED601F701E35EFC4F9F0124
:101D60002A0D3B1D2E173F0719F08D918193FACF55
:101D7000CA0CDB1C5ECFD8015396CD90DD90ED9060
:101D8000FC90569714968C91C416D506E606F70675
:101D900040F4F801438B548B658B768B8068848389
:101DA0000DC020915B0130915C01232B39F021148F
:101DB000310421F08068D80114968C93F801848155
:101DC00083FD02C0C10107C0C8010E94750C8823B1
:101DD00009F4AFCEF7CF0F900F900F900F90DF91D7
:101DE000CF911F910F91FF90EF90DF90CF90BF9018
:101DF000AF909F908F907F906F905F904F903F90AB
:101E00002F900895CF93DF931F92CDB7DEB76983EC
:101E100041E050E0BE016F5F7F4F0E94610D0F9067
:101E2000DF91CF9108952F923F924F925F926F92E0
:101E30007F928F929F92AF92BF92CF92DF92EF925A
:101E4000FF920F931F93CF93DF93EC016B014A0135
:101E50008D81811103C08FEF9FEFD7C08C8180FFF0
:101E6000FACF4B885C886D887E884A855B856C8557
:101E70007D85C401A0E0B0E093018201041B150B35
:101E8000260B370B081719072A073B0718F44201DE
:101E9000841A950A54011E0126E0220E311CA11459
:101EA000B10409F47EC04A855B856C857D852A0175
:101EB00081E05822ED818B8D9C8D8A019B01F9E098
:101EC0003695279517950795FA95D1F7E23061F485
:101ED000FC01828D938DA48DB58DBC01CD01600F69
:101EE000711F821F931F3FC0FC0174807A9470227F
:101EF00041145104C9F4711017C0452B462B472BD0
:101F000049F48F89988DA98DBA8D8E839F83A88778
:101F1000B9870AC04E815F816885798591010E94E9
:101F2000F20B882309F497CFEB8DFC8D8E819F8176
:101F3000A885B9850297A109B109058404C0880F55
:101F4000991FAA1FBB1F0A94D2F74685578560893F
:101F50007189840F951FA61FB71FBC01CD01670DA6
:101F6000711D811D911D20E032E0241935093501D4
:101F70002A153B0508F439012C8126FD04C06114A3
:101F8000F2E07F0681F400910C0110910D01209187
:101F90000E0130910F016017710782079307B1F4AA
:101FA00002C0C40132C040E00E94080B882309F43B
:101FB00052CFF201E35EFC4FD601CF01860D971D93
:101FC0008E179F0789F021912D93FACF7601830117
:101FD0009201AB01BC0180912F06909130060E94C6
:101FE000E405882309F437CFC60CD71C8A859B8566
:101FF000AC85BD85860D971DA11DB11D8A879B8768
:10200000AC87BD87A618B7084ACFDF91CF911F9143
:102010000F91FF90EF90DF90CF90BF90AF909F9087
:102020008F907F906F905F904F903F902F9008958A
:102030001F920F920FB60F9211242F933F934F933D
:102040005F936F937F938F939F93AF93BF93EF9320
:10205000FF93E091150381E0E827F0E0E65FFE4F93
:102060009081992309F450C090911503892780939A
:102070001A0380916F008F7D80936F00789487ECB6
:1020800095E00E9437032091920230919302281725
:102090003907E8F08091100183FF07C06CE270E01F
:1020A00080E090E00E9401172AC080916F008E7D31
:1020B00080936F0087EC95E00E941317882321F02E
:1020C00087EC95E00E94481910923A061DC0609175
:1020D0001A0380E4689FB00111246C567D4F8091F3
:1020E000E0059091E105009721F040E450E00E9466
:1020F000130FE0911A03F0E0E65FFE4F108280912B
:102100006F00806280936F00FF91EF91BF91AF915C
:102110009F918F917F916F915F914F913F912F91FF
:102120000F900FBE0F901F901895CF93DF93EC0187
:102130000E94750C882311F01D8281E0DF91CF9100
:102140000895CF92DF92EF92FF920F931F93CF9358
:10215000DF93CDB7DEB76B970FB6F894DEBF0FBE37
:10216000CDBF7C0180EB91E00E9432168EEA91E0B7
:102170000E943C1682E292E00E943E168FEA91E0B5
:102180000E943C16C7010E943C168DEA91E00E9415
:1021900059169091310680913806981719F10E94CE
:1021A0005A1961E0809131060E94541B80913106DA
:1021B000863031F08E3241F0853041F481E001C04B
:1021C00082E08093390604C083E0FBCF1092390689
:1021D0008DB581608DBD8CB58C7F8CBD80913106B5
:1021E0008093380610923A0680916F008E7D80931E
:1021F0006F0087EC95E00E944819B701CE01019667
:102200000E94401C8B819C819093CA058093C905D4
:102210008D819E81AF81B8858093CB059093CC054D
:10222000A093CD05B093CE0589859A85AB85BC85F5
:102230008093CF059093D005A093D105B093D2059C
:10224000DE011D96E3EDF5E08D91819385E0E03EA2
:10225000F807D1F78A8D9B8D9093E1058093E00577
:1022600068E070E080E090E00E94011780913F01FB
:1022700090914001A0914101B091420189839A83DC
:10228000AB83BC838E010F5F1F4F6E0195E0C90EBB
:10229000D11C87EC95E00E945F07F80121918F0126
:1022A000022E000C330B8217930719F4EC15FD0571
:1022B00081F768E170E080E090E00E94011787EC10
:1022C00095E00E945F07909335068093340687EC73
:1022D00095E00E945F0720E030E0382F80913406BF
:1022E00090913506822B932B90933506809334067C
:1022F0006CE270E080E090E00E94011780E490E0E2
:10230000909393028093920281E080933A068091A9
:102310001001982F9F7790931001209134063091EF
:1023200035062B3F3F4A30F020EC3DE53093350633
:1023300020933406209134063091350640E050E079
:1023400086FF05C060E075E38CE090E004C060E0CB
:102350007AE688E190E00E9426226AE0629FC0014E
:10236000639F900D1124909337068093360687EC77
:1023700095E00E945F078C0187EC95E00E94690759
:10238000800F911F97FD01969595879540917D024D
:102390002091880030918900141634F402C03695DB
:1023A00027954A95E2F709C0552741950CF45095B9
:1023B00002C0220F331F4A95E2F7992740E050E010
:1023C0002817390708F046C0B9016F5F7F4F6217C1
:1023D000730728F09C016817790708F49B01FA013C
:1023E000EC56FD4F20834F5F5F4F4034510561F73E
:1023F00040E050E0B9016F5F7F4F6217730728F02C
:102400009C016817790708F49B01FA01EC52FD4F13
:1024100020834F5F5F4F4034510561F710921503E1
:1024200010920A0110920B0110921403F8948091FB
:10243000360690913706909387008093860082E855
:102440008093800089E18093810081E280936F0016
:1024500078942DC0B901615071096817790728F087
:102460006217730718F49B0101C09C01FA01EC5636
:10247000FD4F20834F5F5F4F4034510559F740E0D7
:1024800050E0B901615071096817790728F06217A7
:10249000730718F49B0101C09C01FA01EC52FD4F37
:1024A00020834F5F5F4F4034510559F7B7CF80917C
:1024B0003A06882339F064E670E080E090E00E94FC
:1024C000061CF5CF85EB91E00E9432168EEA91E072
:1024D0000E943C1685E092E00E943E168FEA91E051
:1024E0000E943C16C7010E943C168DEA91E00E94B2
:1024F00059166B960FB6F894DEBF0FBECDBFDF91B5
:10250000CF911F910F91FF90EF90DF90CF900895A2
:102510008F929F92AF92BF92CF92DF92EF92FF92F3
:102520000F931F93CF93DF93CDB7DEB7C254D1097A
:102530000FB6F894DEBF0FBECDBF8C018FE591E0E2
:102540000E9432168EEA91E00E943C1689E393E0E5
:102550000E943E168FEA91E00E943C16C8010E943C
:102560003C168DEA91E00E945916B801CE014C96B6
:102570000E94401CCE014C960E941317882319F02C
:10258000C12CD12C13C08DE193E00E943E16C801EE
:102590000E94591665E671E022C0EA8DFB8D3097E6
:1025A00009F419C18581823008F415C1BE01645E49
:1025B0007F4FCE0101960E941F1DCE0101960E9401
:1025C00013178111EACFC114D10469F483E093E0B9
:1025D0000E943E16C8010E94591669E771E083E423
:1025E00091E00E94AE198CE791E00E9432168EEACB
:1025F00091E00E943C1685EE92E00E943E168FEA22
:1026000091E00E943C16C6010E9432168DEA91E0CC
:102610000E945916CE014C960E94C6190D2C000C32
:10262000EE08FF081C141D041E041F044CF40E9435
:10263000BF21A70196010E9426224B015C0103C025
:10264000812C912C5401740184E891E00E9432168F
:102650008EEA91E00E943C1687EC92E00E943E16C2
:102660008FEA91E00E943C16C4010E9432168DEA66
:1026700091E00E945916C12CD12CBE01645E7F4F9F
:10268000CE010196CE14DF0434F50E941F1DCE0149
:1026900001960E941317811111C08FE992E00E94E8
:1026A0003E16C7010E94321684E992E00E943E164F
:1026B000C8010E9459166EE871E091CFEA8DFB8D3A
:1026C000309709F490C08581823008F48CC08FEF78
:1026D000C81AD80AD2CF0E941F1DCE0101960E94AF
:1026E0001317811111C08FE592E00E943E16C701B9
:1026F0000E94321684E592E00E943E16C8010E94B4
:1027000059166BE971E06BCF8EE991E00E943216A9
:102710008EEA91E00E943C1680E492E00E943E1610
:102720008FEA91E00E943C16CE010D960E943C1665
:102730008DEA91E00E945916BE01635F7F4FCE0182
:10274000C7960E946225CE0101960E944819CE01CB
:102750004C960E94C619CE014C960E944819B801A9
:10276000CE0101960E946225BE01695C7F4FCE01B9
:1027700001960E944C258BEC91E00E9432168EEA65
:1027800091E00E943C168AE593E00E943E168FEA93
:1027900091E00E943C16CE0101960E943C168DEA03
:1027A00091E00E945916CE0101960E94A110CE5BC5
:1027B000DF4F0FB6F894DEBF0FBECDBFDF91CF91D4
:1027C0001F910F91FF90EF90DF90CF90BF90AF904F
:1027D0009F908F9008958FEFC81AD80ACE01019666
:1027E0000E944819E3CECE0101960E9448196FCF8E
:1027F0000F931F93CF93DF93CDB7DEB760970FB6DC
:10280000F894DEBF0FBECDBF009771F08C010E941F
:102810001D22892B49F0B801CE0101960E94162293
:10282000CE0101960E94A11060960FB6F894DEBF0B
:102830000FBECDBFDF91CF911F910F9108950E94E0
:1028400089026093020170930301809304019093C5
:1028500005018AEA91E00E9432168EEA91E00E9418
:102860003C1688EE91E00E943E168DEA91E00C94B1
:1028700059161F920F920FB60F9211242F933F9368
:102880004F935F936F937F938F939F93AF93BF9378
:10289000CF93EF93FF9329B1C0914C0280917A02BC
:1028A00090917702322F309593238223892B909138
:1028B0006D00C227C923C82320934C02CC23C1F149
:1028C000C0FF05C0E0914D02F0914E020995C1FF95
:1028D00005C0E0914F02F09150020995C2FF05C07A
:1028E000E0915102F09152020995C3FF05C0E091B9
:1028F0005302F09154020995C4FF05C0E0915502BE
:10290000F09156020995C5FF05C0E0915702F0917C
:1029100058020995C6FF05C0E0915902F0915A028C
:102920000995C7FF05C0E0915B02F0915C02099533
:10293000FF91EF91CF91BF91AF919F918F917F9137
:102940006F915F914F913F912F910F900FBE0F901C
:102950001F9018951F920F920FB60F9211242F936C
:102960003F934F935F936F937F938F939F93AF9317
:10297000BF93CF93EF93FF9326B1C0915D028091F7
:102980007B0290917802322F309593238223892BFA
:1029900090916C00C227C923C82320935D02CC23E9
:1029A00051F1C0FF05C0E0915E02F0915F02099510
:1029B000C1FF05C0E0916002F09161020995C2FF7C
:1029C00005C0E0916202F09163020995C3FF05C062
:1029D000E0916402F09165020995C4FF05C0E091A1
:1029E0006602F09167020995C5FF05C0E091680293
:1029F000F09169020995FF91EF91CF91BF91AF914D
:102A00009F918F917F916F915F914F913F912F9106
:102A10000F900FBE0F901F9018951F920F920FB638
:102A20000F9211242F933F934F935F936F937F9354
:102A30008F939F93AF93BF93CF93EF93FF9323B164
:102A4000C0916A0280917C0290917902322F309578
:102A500093238223892B90916B00C227C923C8231B
:102A600020936A02CC2351F1C0FF05C0E0916B02B4
:102A7000F0916C020995C1FF05C0E0916D02F091E3
:102A80006E020995C2FF05C0E0916F02F0917002DD
:102A90000995C3FF05C0E0917102F091720209959A
:102AA000C4FF05C0E0917302F09174020995C5FF5F
:102AB00005C0E0917502F09176020995FF91EF91C2
:102AC000CF91BF91AF919F918F917F916F915F91C6
:102AD0004F913F912F910F900FBE0F901F9018951F
:102AE0001F920F920FB60F9211242F933F934F9383
:102AF0005F936F937F938F939F93AF93BF93EF9366
:102B0000FF93E0914A02F0914B020995FF91EF91FA
:102B1000BF91AF919F918F917F916F915F914F91F5
:102B20003F912F910F900FBE0F901F9018951F92FD
:102B30000F920FB60F9211242F933F934F935F93F1
:102B40006F937F938F939F93AF93BF93EF93FF9375
:102B5000E0914802F09149020995FF91EF91BF91F0
:102B6000AF919F918F917F916F915F914F913F9125
:102B70002F910F900FBE0F901F901895009769F03E
:102B8000FC0101900020E9F73197AF01481B590B78
:102B9000BC018AE295E00C942E0280E090E008955A
:102BA0008F929F92AF92BF920F931F93CF93DF9319
:102BB000CDB7DEB7A1970FB6F894DEBF0FBECDBF7D
:102BC00019A2423008F44AE08E010F5D1F4F842E97
:102BD000912CA12CB12CA50194010E945822E62F22
:102BE000B901CA0101501109EA3014F4E05D01C0D5
:102BF000E95CD801EC93232B242B252B61F7C8012A
:102C00000E94BE15A1960FB6F894DEBF0FBECDBFD1
:102C1000DF91CF911F910F91BF90AF909F908F90B8
:102C20000895CF92DF92EF92FF92CF93DF936B01E3
:102C30007C016DE28AE295E00E94EB09EC016627D7
:102C40007727CB016C197D098E099F094AE00E9404
:102C5000D0158C0F9D1FDF91CF91FF90EF90DF90EB
:102C6000CF900895BC01990F880B990B97FD0C9498
:102C700011164AE00C94D0150C94BE150F931F93B7
:102C8000CF93DF938C01C0E0D0E0F801EC0FFD1F83
:102C90006491662341F08AE295E00E94EB09892B5A
:102CA00011F02196F2CFCE01DF91CF911F910F91BC
:102CB0000895CF93DF930E94BE15EC018BEA91E05B
:102CC0000E94BE158C0F9D1FDF91CF910895CF926A
:102CD000DF92EF92FF92CF93DF936B017C016E2D19
:102CE00070E0C4E2D5E088810E94901BBB27AF2D25
:102CF0009E2D8D2DBC0177278A810E94901BB601E5
:102D000077278C810E94901B81E890E00E94321608
:102D10008EEA91E00E943C1686EA93E00E943E16FD
:102D20008FEA91E00E943C164AE0C701B6010E947A
:102D3000D0158DEA91E0DF91CF91FF90EF90DF9079
:102D4000CF900C945916CF92DF92EF92FF9220E031
:102D500030E04FE753E460911F05709120058091AA
:102D60002105909122050E9482236B017C0120E0C5
:102D700030E0A9010E947D2320E030E040E05FE3E5
:102D800087FD05C0C701B6010E948A2204C0C701A1
:102D9000B6010E9489220E94F6222091230530E08C
:102DA000269F7001279FF00C369FF00C1124B7016D
:102DB00080911D050E94901B89E990E00E943216C7
:102DC0008EEA91E00E943C1682E993E00E943E1652
:102DD0008FEA91E00E943C1680911D0590911E059E
:102DE0000E9432168FEA91E00E943C16C7010E94B1
:102DF00032168DEA91E0FF90EF90DF90CF900C9427
:102E000059162091E0053091E1052115310541F079
:102E1000AB01BC01C9010E94CA0C91E0811101C043
:102E200090E0892F0895DC015996ED91FC915A9715
:102E3000309721F081E09581911101C080E00895E3
:102E4000EF92FF920F931F93CF93DF93EC017B01DF
:102E50008A011B821A8288EE93E0A0E0B0E08C83A6
:102E60009D83AE83BF8381E691E0998388838DE162
:102E700090E00E9419249A8F898F009779F02DE1B4
:102E8000F701DC0101900D922A95E1F74CE050E04A
:102E9000B801CE010C960E946925188EDF91CF9162
:102EA0001F910F91FF90EF9008954F925F926F9254
:102EB0007F92AF92BF92CF92DF92EF92FF920F93E9
:102EC0001F93CF93DF9300D000D0CDB7DEB78C0136
:102ED00049835A836B837C835901C12CD12C7601A1
:102EE000412C82E0582E612C712C49815A816B81D2
:102EF0007C819E012F5F3F4FC8010E94F20B882307
:102F000051F1D301C201F801058404C0880F991F53
:102F1000AA1FBB1F0A94D2F7C80ED91EEA1EFB1EB9
:102F200049815A816B817C818789803129F088EFC2
:102F30009FEFAFEFBFE004C088EF9FEFA0E0B0E0ED
:102F4000481759076A077B0780F2F501C082D182D2
:102F5000E282F38281E00F900F900F900F90DF914B
:102F6000CF911F910F91FF90EF90DF90CF90BF9086
:102F7000AF907F906F905F904F900895CF93DF93C5
:102F8000EC0180E2689FF0011124E35EFC4F6A8B44
:102F900080910C0190910D01A0910E01B0910F0153
:102FA0008E879F87A88BB98B4489558960E070E034
:102FB000BA0155274427828D938DA0E0B0E0482BBD
:102FC000592B6A2B7B2B4F8B588F698F7A8F838578
:102FD000887151F4848D958DA68DB78D8B8B9C8BCC
:102FE000AD8BBE8B81E00EC0803111F080E015C04A
:102FF0009E012D5E3F4F8B8D9C8D0E94551788231F
:10300000A9F384E08D8381E08C831E821F82188661
:1030100019861A861B861C861D86DF91CF9108951E
:10302000AF92BF92CF92DF92EF92FF920F931F93D6
:10303000CF93DF93CDB7DEB72B970FB6F894DEBFF3
:103040000FBECDBF6C01FE013196CE010C967F0103
:1030500020E22193E817F907E1F7DA0120E037E0F1
:103060009D91992331F19E3231F43A3009F4AAC08E
:1030700028E03AE0F5CFE2E8F3E08491882321F0FC
:1030800031969813FACF9EC0321708F49BC08FED8B
:10309000890F8E3508F096C081E0820FF701E20FAC
:1030A000F11D2FE9290F2A3108F490529083282F1F
:1030B000D7CF8981803209F485C08B01FB01838DD4
:1030C000948DF601948F838FFB01168217821086F0
:1030D00011861286138614861586B12CF801828516
:1030E0009385A485B5854389548965897689841734
:1030F0009507A607B70708F065C025E0B695A79520
:10310000979587952A95D1F7F82FFF70AF2EF80184
:103110008581823008F456C0C8010E94480797FD97
:1031200051C0F80182859385A485B5854F96A11D70
:10313000B11D82879387A487B587F0E2AF9EB00167
:103140001124635E7C4F61157105E1F1FB01808103
:103150008823F1F0853E99F14BE050E0C7010E94D1
:103160003F25892B09F0BACF6A2DC6012B960FB6E1
:10317000F894DEBF0FBECDBFDF91CF911F910F91AD
:10318000FF90EF90DF90CF90BF90AF900C94BE1760
:10319000B11018C0F601A28A80910C0190910D0126
:1031A000A0910E01B0910F0186879787A08BB18BFC
:1031B000FB018081882331F0BB24B3948FCFB11001
:1031C000FBCFE8CF80E02B960FB6F894DEBF0FBEA2
:1031D000CDBFDF91CF911F910F91FF90EF90DF90C6
:1031E000CF90BF90AF900895CF93DF93FC012581DE
:1031F000222311F080E049C0EC0180910706803164
:10320000C1F482E08583178A108E118E128E809110
:10321000080690910906A0E0B0E025E0880F991F0C
:10322000AA1FBB1F2A95D1F7838B948BA58BB68BD6
:1032300019C08032F9F683E0858340910A065091E7
:103240000B0660910C0670910D06478B508F618FB5
:10325000728F9F012D5E3F4F80EF95E00E945517C2
:10326000882341F280EF95E09C8F8B8F81E08C83E7
:103270001E821F82188619861A861B861C861D864A
:103280001E861F86188A198A1A8ADF91CF9108959F
:10329000CF93DF93EC01898D9A8D009741F00E94C6
:1032A0009510898D9A8D0E94B1241A8E198EDF9106
:1032B000CF91089510923A0680916F008E7D809391
:1032C0006F0087EC95E00E9448198091800087FF8D
:1032D0003BC0809188009091890040E050E02091AF
:1032E0003606309137064217530770F597FD06C032
:1032F000B9018217930720F4BC0102C060E070E0BE
:1033000070932E0660932D0697FD06C0B9018217B3
:10331000930720F4BC0102C060E070E07093890064
:1033200060938800225331096AE070E0E0918400E4
:10333000F0918500E217F307C8F361507109B1F706
:103340004F5F5F4F0197CBCF8091100180628093D8
:10335000100110928100109280000895EB010E94EC
:1033600059168CE192E00E945916CE010E94321645
:103370008BEA91E00E94BE158FE392E00E945916FD
:103380008AE295E00E94380A0E943A25DC015996AB
:10339000ED91FC915A97309759F08581823040F039
:1033A0001682178210861186128613861486158659
:1033B00008958F929F92AF92BF92CF92DF92EF9239
:1033C000FF92CF93DF93C82F84EE95E09093300661
:1033D00080932F06CC2369F1C53010F080E00CC13A
:1033E00040E060E070E0CB010E94080B8823B1F35D
:1033F00020E1C29FC0011124835F9C4FFC01E25475
:10340000FE4F20812F7751F73C9640815181628198
:103410007381443651056105710500F33497C0800E
:10342000D180E280F380C114D104E104F10421F4DD
:10343000D5CFC12CD12C760140E0C701B6010E9446
:10344000080B882359F28091280390912903811554
:10345000924021F6A0912D03AA2309F4BFCF6091D9
:103460002B0370912C036115710509F4B7CF2091DE
:103470002A03222309F4B2CFA09302062093F40575
:1034800080E030E041E050E0C82FFA01082E02C091
:10349000EE0FFF1F0A94E2F72E173F0739F08F5FF8
:1034A000C83091F789E08093FD0598CF8093FD05A2
:1034B00020913303309134032115310519F040E098
:1034C00050E008C0209141033091420340914303F2
:1034D000509144032093F5053093F6054093F7058A
:1034E0005093F80546015701860E971EA11CB11C8A
:1034F0008092030690920406A0920506B0920606FA
:10350000E0912E03F0912F03F0930906E093080653
:10351000B0E00E944522860E971EA81EB91E80921A
:103520000A0690920B06A0920C06B0920D0685E05A
:10353000EE0FFF1F8A95E1F7E150FE4FEF2FFF27B7
:10354000E6958E0E9F1EA11CB11C8092FE059092E6
:10355000FF05A0920006B092010620913003309141
:1035600031032115310521F0A90160E070E008C0A8
:1035700040913D0350913E0360913F0370914003A1
:10358000D701C60188199909AA09BB09840F951F9B
:10359000A61FB71F04C0B695A79597958795CA959E
:1035A000D2F78093F9059093FA05A093FB05B093A9
:1035B000FC05853F2FE09207A105B10510F48CE0D2
:1035C00018C0853F9F4FA105B10510F480E111C0DF
:1035D0008091490390914A03A0914B03B0914C0311
:1035E00080930A0690930B06A0930C06B0930D06E9
:1035F00080E28093070681E0DF91CF91FF90EF900A
:10360000DF90CF90BF90AF909F908F90089590E003
:10361000FC01EE50FC4F2491FC01E252FC4F34912E
:10362000FC01E653FC4FE491EE2309F43CC0222355
:1036300039F1233091F038F42130A9F0223001F52E
:1036400084B58F7D12C0273091F02830A1F024304E
:10365000B9F4809180008F7D03C0809180008F77C6
:10366000809380000DC084B58F7784BD09C08091A0
:10367000B0008F7703C08091B0008F7D8093B00041
:10368000F0E0EE0FFF1FE054FC4FA591B4919FB7FF
:10369000F894611104C08C913095382302C0EC91EC
:1036A0003E2B3C939FBF0895CF93DF9390E0FC01A6
:1036B000E252FC4F2491FC01E653FC4F8491882395
:1036C00061F190E0880F991FFC01EA54FC4FC5910D
:1036D000D491FC01E054FC4FA591B491611109C053
:1036E0009FB7F8948881209582238883EC912E23BC
:1036F0000BC0623061F49FB7F8948881322F309507
:1037000083238883EC912E2B2C939FBF06C08FB709
:10371000F894E8812E2B28838FBFDF91CF910895F5
:103720001F93CF93DF93182FEB0161E00E94541B8E
:10373000209711F460E004C0CF3FD10539F461E077
:10374000812FDF91CF911F910C94071BE12FF0E0A7
:10375000EE50FC4FE491E330F9F048F4E130B9F079
:10376000E230A1F584B5806284BDC8BD34C0E730C5
:10377000E9F0E83019F1E43049F580918000806289
:1037800080938000D0938B00C0938A0024C084B5BE
:10379000806884BDC7BD1FC0809180008068809311
:1037A0008000D0938900C093880015C08091B0003C
:1037B00080688093B000C093B3000DC08091B000CA
:1037C00080628093B000C093B40005C0C038D105BA
:1037D0000CF0B5CFAFCFDF91CF911F9108958E3010
:1037E00008F08E508770806480937C0080917A000E
:1037F000806480937A0080917A0086FDFCCF80916E
:1038000078002091790090E0922B08958F929F92FA
:10381000AF92BF92CF92DF92EF92FF926B017C0149
:103820000E9464024B015C01C114D104E104F10463
:10383000F1F00E946402DC01CB0188199909AA0900
:10384000BB09883E9340A105B10570F321E0C21A7F
:10385000D108E108F10888EE880E83E0981EA11CCB
:10386000B11CC114D104E104F10419F7DDCFFF90BC
:10387000EF90DF90CF90BF90AF909F908F90089582
:103880002F923F924F925F926F927F928F929F9270
:10389000AF92BF92CF92DF92EF92FF920F931F935E
:1038A000CF93DF93CDB7DEB7C656D1090FB6F894E4
:1038B000DEBF0FBECDBF4C016B0119A218A287E974
:1038C00091E09F8F8E8F1BA21C821B829A8389831B
:1038D0001E825E018EE1A80EB11CC5010E94F41883
:1038E00076018E010F5F1F4F250118016FE270E016
:1038F000C7010E945725009709F441C0F7012081B4
:103900002F3221F4FFEFEF1AFF0AF0CF8E198D301E
:1039100008F08CE0682E712CA301B701CE01885A03
:103920009F4F0E946925E8E5F0E0EC0FFD1FE60DD2
:10393000F71D1082C8010E949510F8018581882327
:1039400051F01EAE1DAE87E991E09CAF8BAF219682
:103950001FAE219720C0AE01485A5F4FB201C80187
:103960000E941018882369F3E60CF71CC2010E941C
:103970009510942D852D2801092F182FB7CFC70139
:103980008C199D09A7969FAF8EAFA797B201CE0164
:10399000CB960E94E406A796EEADFFADA797CE0E9C
:1039A000DF1EF6018081811109C0BE01655C7F4F79
:1039B000C1010E94E40645E452E022C019A218A207
:1039C00087E991E09F8F8E8F1BA221968FAD219763
:1039D000811104C0C4010E94350716C0A601BE01B2
:1039E000655C7F4FC5010E941018882399F3CE01B2
:1039F000CB960E949510B501C1010E94E406A60174
:103A0000B101C4010E942017C401CA59DF4F0FB68B
:103A1000F894DEBF0FBECDBFDF91CF911F910F9104
:103A2000FF90EF90DF90CF90BF90AF909F908F90DE
:103A30007F906F905F904F903F902F900895CF921E
:103A4000DF92EF92FF920F931F93CF93DF93CDB747
:103A5000DEB7C756D1090FB6F894DEBF0FBECDBF93
:103A60008C016B01FB01E18CF28CF70185818230C6
:103A700008F46FC082859385A485B5858F719927D9
:103A8000AA27BB27892B8A2B8B2B09F062C040E227
:103A900050E0BE016F5F7F4FC7010E94130F80325D
:103AA00009F057C08981882309F453C0853E79F312
:103AB0008E3269F38C8583FDEACF22961FAE1EAE4F
:103AC000229787E991E09FAF8EAF24961FAE24978F
:103AD000FE01319680E090E03EE22191203291F0AB
:103AE000983041F4ABE5B0E0AC0FBD1FA80FB11D9D
:103AF0003C938F5FABE5B0E0AC0FBD1FA80FB11DCD
:103B00002C938F5F9F5F9B3041F7EBE5F0E0EC0F6C
:103B1000FD1FE80FF11D1082F601618D728DAE015F
:103B2000455A5F4FCE01CE960E941018882389F027
:103B3000BE01625C7F4FCE0181960E94E406AE0119
:103B4000455A5F4FBE016F5D7F4FC8010E9420172D
:103B500003C0C8010E943507C801C959DF4F0FB61D
:103B6000F894DEBF0FBECDBFDF91CF911F910F91B3
:103B7000FF90EF90DF90CF900895789484B58260A5
:103B800084BD84B5816084BD85B5826085BD85B501
:103B9000816085BD80916E00816080936E0010927F
:103BA00081008091810082608093810080918100FA
:103BB000816080938100809180008160809380008B
:103BC0008091B10084608093B1008091B0008160E9
:103BD0008093B00080917A00846080937A00809115
:103BE0007A00826080937A0080917A00816080936D
:103BF0007A0080917A00806880937A001092C100E8
:103C0000E0913A05F0913B0582E08083E091360532
:103C1000F09137051082E0913805F09139058FEC6D
:103C2000808310924205E0913E05F0913F0586E0C9
:103C30008083E0913C05F0913D0580818061808327
:103C4000E0913C05F0913D05808188608083E091A2
:103C50003C05F0913D05808180688083E0913C05C2
:103C6000F0913D0580818F7D808383E090E090938B
:103C700025058093240585E090E0909327058093A7
:103C8000260586E090E0909329058093280561E061
:103C900083E00E94541B61E0809126050E94541B22
:103CA00061E0809128050E94541B60E070E0CB0128
:103CB0000E94671689E08093310680913A0681114F
:103CC00005C08091100180648093100110927D02E4
:103CD0008AE090E090931E0580931D0561E00E94AC
:103CE000541B80E090E0A0E8BFE380931F05909311
:103CF0002005A0932105B0932205809123058823F8
:103D000021F0109223050E94A31662E082E00E9437
:103D1000541B9FB7F89422E733E030934902209375
:103D20004802E898809169008C7F809369008091B7
:103D30006900836080936900E09AE89A9FBF809150
:103D40001306882321F08EE096E00E9495101092D1
:103D5000EF051092ED051092EA051092E90588E052
:103D60008093E8050E948902EB0161E08091E805FB
:103D70000E94541B61E08091E8050E94071B1FB759
:103D8000F89480918602811127C0E4EDF3E08491DC
:103D9000E8EEF3E09491E82FF0E0EE0FFF1FEA5415
:103DA000FC4FA591B491EC91E92321F461E08AE004
:103DB0000E94071B61E08AE00E94541B8CB5806161
:103DC0008CBD8CB580648CBD61E08DE00E94541B7D
:103DD00061E08BE00E94541B809186028F5F80938C
:103DE00086021FBF82E58093E2051092E305809171
:103DF000E2059091E3050E947C051AE08FEF0E9496
:103E00003D051150D9F784EE95E00E947F0520E032
:103E100030E0A90160E084EE95E00E949505182F3E
:103E20008093EE05813049F00E9489026C1B7D0B66
:103E3000613D774060F381E054C02AEA31E040E020
:103E400050E068E084EE95E00E94950582FF03C093
:103E50001093EF050EC014E00E9444058093EE0518
:103E60001150D1F78A3A11F082E03BC082E0809392
:103E7000EF058091EF05823021F0C12CD12C760125
:103E800005C0C12CD12CE12C80E4F82E20E030E0DC
:103E9000A90167E384EE95E00E949505A7019601CC
:103EA00069E284EE95E00E9495058093EE058823F3
:103EB00049F00E9489026C1B7D0B613D774030F315
:103EC00088E00FC08091EF05823001F520E030E0FE
:103ED000A9016AE384EE95E00E949505882341F0EC
:103EE00086E08093E90584EE95E00E94320528C0C3
:103EF0000E944405807C803C19F483E08093EF05A8
:103F00000E9444050E9444050E94440584EE95E009
:103F10000E94320580E58093E2051092E30581E07E
:103F20000E94D919882339F08EE096E00E94F41897
:103F3000882331F013C080E00E94D9198111F4CF99
:103F400088E690E00E943E168BEA91E00E94BE1542
:103F50006FE772E08CE191E00E94AE19C4EFD1E00E
:103F60000AE010E0E12CF12C8EE00E94EF1B209182
:103F70000001309101012F3FEFEF3E0709F49C0152
:103F80002436310518F082E090E002C081E090E034
:103F90000E9493078091820290918302A0918402F3
:103FA000B09185024091060150910701609108018E
:103FB00070910901481759076A077B0739F1809307
:103FC000060190930701A0930801B093090180E9CD
:103FD00092E00E9432168EEA91E00E943C1686E939
:103FE00090E00E943E168FEA91E00E943C1660919C
:103FF00082027091830280918402909185024AE04E
:104000000E94D0158DEA91E00E945916809180029D
:104010009091810282309105B1F130F4009709F45A
:1040200071C0019749F071C08330910509F450C007
:10403000049709F44DC069C04091020150910301F9
:104040006091040170910501809182029091830238
:10405000A0918402B0918502481759076A077B072F
:1040600018F482E090E031C080917E0290917F024E
:10407000019709F44AC00E944009882309F445C009
:1040800084E090E022C040910201509103016091D0
:104090000401709105018091820290918302A091A8
:1040A0008402B0918502481759076A077B0738F4E4
:1040B0008DE890E00E94F8130E941F1426C00E9411
:1040C0004009882311F183E090E00E9499081DC007
:1040D000409102015091030160910401709105012A
:1040E0008091820290918302A0918402B091850216
:1040F000481759076A077B0708F4B3CF0E944009A5
:10410000882319F081E090E0E0CF64EF71E080E077
:1041100090E00E94061C8AE295E00E94B309892B78
:1041200009F493C08AE295E00E9491098436B9F1BE
:10413000D4F48B3209F470C08D3209F086C08EEE53
:1041400092E00E9432168EEA91E00E943C168BE0CB
:1041500092E00E943C168DEA91E00E9459168091EF
:104160007D0281506CC08E3679F18237E1F18D3657
:1041700009F06BC00E9489026093820270938302EF
:10418000809384029093850288ED92E00E9432161B
:104190008EEA91E00E943C1681EB91E00EC0D09334
:1041A0000101C09300018CED92E00E9432168EEA6C
:1041B00091E00E943C1682EC91E00E943C168DEA50
:1041C00091E00E94591641C0109301010093000133
:1041D00080EE92E00E9432168EEA91E00E943C1638
:1041E00089ED91E0EACF83EE92E00E9432168EEAEA
:1041F00091E00E943C168DEE91E00E943C168DEA03
:1042000091E00E9459160E945A198AE295E00E9494
:10421000380AF701099519C089EE92E00E9432161A
:104220008EEA91E00E943C168AEF91E00E943C16D3
:104230008DEA91E00E94591680917D028F5F8093F4
:104240007D028DE890E00E94F8130E94BF098CCE99
:10425000EAE2F5E01382128288EE93E0A0E0B0E09B
:1042600084839583A683B78385E891E091838083D7
:1042700085EC90E09587848784EC90E0978786872B
:1042800080EC90E0918B808B81EC90E0938B828B23
:1042900082EC90E0958B848B86EC90E0978B868BFC
:1042A000118E128E138E148E87EC95E00E943507C6
:1042B000E2EEF5E080E580831182E4EEF5E0158220
:1042C00016821186138682E090E0A0E0B0E0848739
:1042D0009587A687B78713A215A614A687E991E04C
:1042E00093A782A717A608958F929F92AF92BF922D
:1042F000CF92DF92EF92FF92CF93DF93EC01688130
:1043000079818A819B81611571058105910521F46F
:1043100064E279ED8BE597E02DE133EF41E050E089
:104320000E94262249015A019B01AC01A7EAB1E48F
:104330000E9445226B017C01ACEEB4EFA501940113
:104340000E945322DC01CB018C0D9D1DAE1DBF1DB3
:10435000B7FF03C00197A109B04888839983AA8356
:10436000BB83BC01CD019F77DF91CF91FF90EF9090
:10437000DF90CF90BF90AF909F908F9008958F92D5
:104380009F92AF92BF92CF92DF92EF92FF92609195
:104390001101709112018091130190911401611526
:1043A00071058105910521F464E279ED8BE597E0D3
:1043B0002DE133EF41E050E00E94262249015A01ED
:1043C0009B01AC01A7EAB1E40E9445226B017C018C
:1043D000ACEEB4EFA50194010E945322DC01CB01A5
:1043E0008C0D9D1DAE1DBF1DB7FF03C00197A10918
:1043F000B0488093110190931201A0931301B093E0
:104400001401BC01CD019F77FF90EF90DF90CF901A
:10441000BF90AF909F908F9008956093110170931B
:10442000120180931301909314010895FB01DC01A4
:1044300005900D920020E1F70895FC010590002001
:10444000E9F7809590958E0F9F1F0895052E97FB95
:104450001EF400940E943D2257FD07D00E9458226E
:1044600007FC03D04EF40C943D22509540953095B6
:1044700021953F4F4F4F5F4F0895909580957095D0
:1044800061957F4F8F4F9F4F08950E947A22A59F7D
:10449000900DB49F900DA49F800D911D112408953F
:1044A000B7FF0C9445220E944522821B930B08956E
:1044B000A1E21A2EAA1BBB1BFD010DC0AA1FBB1F28
:1044C000EE1FFF1FA217B307E407F50720F0A21B9A
:1044D000B30BE40BF50B661F771F881F991F1A9407
:1044E00069F760957095809590959B01AC01BD0131
:1044F000CF010895A29FB001B39FC001A39F700D8B
:10450000811D1124911DB29F700D811D1124911DDB
:1045100008955058BB27AA270E94A1220C94432338
:104520000E94352338F00E943C2320F039F49F3F4D
:1045300019F426F40C9432230EF4E095E7FB0C9466
:104540002C23E92F0E94542358F3BA1762077307EC
:104550008407950720F079F4A6F50C9476230EF4E1
:10456000E0950B2EBA2FA02D0B01B90190010C0183
:10457000CA01A0011124FF27591B99F0593F50F49B
:10458000503E68F11A16F040A22F232F342F4427F3
:10459000585FF3CF469537952795A795F0405395EB
:1045A000C9F77EF41F16BA0B620B730B840BBAF0BB
:1045B0009150A1F0FF0FBB1F661F771F881FC2F726
:1045C0000EC0BA0F621F731F841F48F4879577953A
:1045D0006795B795F7959E3F08F0B0CF9395880FF4
:1045E00008F09927EE0F9795879508950E94FD2270
:1045F0006894B1110C94772308950E945C2388F08D
:104600009F5798F0B92F9927B751B0F0E1F0660F96
:10461000771F881F991F1AF0BA95C9F714C0B130D7
:1046200091F00E947623B1E008950C947623672FD1
:10463000782F8827B85F39F0B93FCCF38695779506
:104640006795B395D9F73EF49095809570956195EF
:104650007F4F8F4F9F4F089597F99F6780E870E0D5
:1046600060E008959FEF80EC089500240A941616E8
:10467000170618060906089500240A941216130650
:10468000140605060895092E0394000C11F48823DE
:1046900052F0BB0F40F4BF2B11F460FF04C06F5FFA
:1046A0007F4F8F4F9F4F089557FD9058440F551FD0
:1046B00059F05F3F71F04795880F97FB991F61F0A4
:1046C0009F3F79F087950895121613061406551F1B
:1046D000F2CF4695F1DF08C0161617061806991F87
:1046E000F1CF86957105610508940895E894BB277C
:1046F00066277727CB0197F908950E94EF2308F4E6
:104700008FEF08950E9495230C9443230E94352334
:1047100038F00E943C2320F0952311F00C942C23B8
:104720000C94322311240C9477230E94542370F3A9
:10473000959FC1F3950F50E0551F629FF001729F46
:10474000BB27F00DB11D639FAA27F00DB11DAA1F55
:10475000649F6627B00DA11D661F829F2227B00DA2
:10476000A11D621F739FB00DA11D621F839FA00D2D
:10477000611D221F749F3327A00D611D231F849F7D
:10478000600D211D822F762F6A2F11249F575040D4
:104790009AF0F1F088234AF0EE0FFF1FBB1F661F4F
:1047A000771F881F91505040A9F79E3F510580F018
:1047B0000C942C230C9477235F3FE4F3983ED4F3BE
:1047C000869577956795B795F795E7959F5FC1F7BC
:1047D000FE2B880F911D9695879597F90895990F4F
:1047E0000008550FAA0BE0E8FEEF16161706E807BB
:1047F000F907C0F012161306E407F50798F0621BDC
:10480000730B840B950B39F40A2661F0232B242BB0
:10481000252B21F408950A2609F4A140A6958FEFCF
:10482000811D811D0895EE0FFF1F0590F491E02D6D
:1048300009940F931F93CF93DF938230910510F467
:1048400082E090E0E0913D06F0913E0620E030E00D
:10485000A0E0B0E0309719F14081518102811381CD
:1048600048175907C8F08417950769F4109731F075
:1048700012960C93129713961C9327C000933D0633
:1048800010933E0622C02115310519F04217530737
:1048900018F49A01BD01EF01DF01F801DBCF21150A
:1048A0003105F9F0281B390B2430310580F48A8159
:1048B0009B816115710521F0FB019383828304C004
:1048C00090933E0680933D06FE01329644C0FE0161
:1048D000E20FF31F8193919322503109398328838A
:1048E0003AC020913B0630913C06232B41F42091A5
:1048F00017013091180130933C0620933B0620911C
:104900001501309116012115310541F42DB73EB73F
:104910004091190150911A01241B350BE0913B067F
:10492000F0913C06E217F307A0F42E1B3F0B28176B
:10493000390778F0AC014E5F5F4F2417350748F018
:104940004E0F5F1F50933C0640933B06819391931B
:1049500002C0E0E0F0E0CF01DF91CF911F910F9115
:104960000895CF93DF93009709F481C0FC0132973B
:1049700013821282A0913D06B0913E06109781F4F9
:1049800020813181820F931F20913B0630913C069C
:104990002817390751F5F0933C06E0933B0667C0B2
:1049A000ED0120E030E0CE17DF0740F44A815B8163
:1049B0009E0141155105F1F0EA01F5CFD383C28381
:1049C00040815181840F951FC817D90759F48881F8
:1049D0009981840F951F0296918380838A819B81A0
:1049E000938382832115310529F4F0933E06E093E9
:1049F0003D063DC0E901FB83EA8349915991C40F0B
:104A0000D51FEC17FD0761F480819181840F951FFC
:104A10000296E90199838883828193819B838A83AB
:104A2000E0E0F0E012968D919C911397009719F0B9
:104A3000FD01DC01F7CF8D919C9111979D012E5FB7
:104A40003F4F820F931F20913B0630913C06281761
:104A5000390769F4309729F410923E0610923D060A
:104A600002C013821282B0933C06A0933B06DF91F2
:104A7000CF91089581E090E0F8940C947825FB01A3
:104A8000DC0104C08D910190801921F44150504007
:104A9000C8F7881B990B0895FB01DC010D900020DD
:104AA000E9F7119701900D920020E1F70895FC01BC
:104AB0008191861721F08823D9F799270895319796
:104AC000CF010895FB01DC0101900D920020E1F778
:104AD0000895FB01DC014150504048F001900D92D7
:104AE0000020C9F701C01D9241505040E0F70895E1
:044AF000F894FFCF68
:104AF400FFFFFFFFFFFFFFFFFFFF0101FFFFFFFFBE
:104B0400600100000000003F0680000073657475BA
:104B1400700000000000A0BB0D00E093040060EAF8
:104B24000000102700000000FFFF00FFFF000057F7
:104B340041564567657452616E646F6D46696C6574
:104B44006E616D654174506174680000000000007E
:104B540000580385036F037D0337035F076907006C
:104B640000000062022E026F036E036202620262A0
:104B74000200000000EB092E028209380AB30991F1
:104B840009A50900000000020F2E026F036E030046
:104B940000000062022E026F036E030D0A003A2029
:104BA400004D6F74696F6E2073696D756C61746507
:104BB4006400427269676874206C69676874207362
:104BC400696D756C61746564004C6F77206C6967FE
:104BD40068742073696D756C6174656400526573E3
:104BE400657474696E672E2E2E00496E637265615A
:104BF40073656420766F6C756D65004465637265DA
:104C04006173656420766F6C756D65002F686F6DD8
:104C1400652F6164616D2F5265706F732F547572C7
:104C24007265742F5475727265742E696E6F0066A6
:084C3400616C7365002F0000A4
:00000001FF
